{
  "contractName": "AbtsRequestWithoutReef",
  "abi": [
    {
      "constant": true,
      "inputs": [],
      "name": "coralFeeInEth",
      "outputs": [
        {
          "name": "",
          "type": "uint256"
        }
      ],
      "payable": false,
      "stateMutability": "view",
      "type": "function"
    },
    {
      "constant": true,
      "inputs": [],
      "name": "messagingInterface",
      "outputs": [
        {
          "name": "",
          "type": "address"
        }
      ],
      "payable": false,
      "stateMutability": "view",
      "type": "function"
    },
    {
      "constant": true,
      "inputs": [],
      "name": "coralWallet",
      "outputs": [
        {
          "name": "",
          "type": "address"
        }
      ],
      "payable": false,
      "stateMutability": "view",
      "type": "function"
    },
    {
      "inputs": [
        {
          "name": "MessagingInterfaceAddress",
          "type": "address"
        },
        {
          "name": "_txReceiver",
          "type": "address"
        },
        {
          "name": "_trustScoreThreshold",
          "type": "uint8"
        }
      ],
      "payable": true,
      "stateMutability": "payable",
      "type": "constructor"
    },
    {
      "constant": false,
      "inputs": [],
      "name": "initiateScoreRetrieval",
      "outputs": [
        {
          "name": "",
          "type": "bool"
        }
      ],
      "payable": true,
      "stateMutability": "payable",
      "type": "function"
    },
    {
      "constant": false,
      "inputs": [],
      "name": "revertTransaction",
      "outputs": [],
      "payable": true,
      "stateMutability": "payable",
      "type": "function"
    },
    {
      "constant": false,
      "inputs": [],
      "name": "initiateRelay",
      "outputs": [],
      "payable": true,
      "stateMutability": "payable",
      "type": "function"
    }
  ],
  "bytecode": "0x6080604052604051606080610a5283398101806040528101908080519060200190929190805190602001909291908051906020019092919050505060008160ff161015151561004d57600080fd5b600073ffffffffffffffffffffffffffffffffffffffff168273ffffffffffffffffffffffffffffffffffffffff161415151561008957600080fd5b81600160006101000a81548173ffffffffffffffffffffffffffffffffffffffff021916908373ffffffffffffffffffffffffffffffffffffffff16021790555080600360006101000a81548160ff021916908360ff16021790555082600360016101000a81548173ffffffffffffffffffffffffffffffffffffffff021916908373ffffffffffffffffffffffffffffffffffffffff160217905550600360019054906101000a900473ffffffffffffffffffffffffffffffffffffffff1673ffffffffffffffffffffffffffffffffffffffff1663f48ba7d16040518163ffffffff167c0100000000000000000000000000000000000000000000000000000000028152600401602060405180830381600087803b1580156101ac57600080fd5b505af11580156101c0573d6000803e3d6000fd5b505050506040513d60208110156101d657600080fd5b8101908080519060200190929190505050600460006101000a81548173ffffffffffffffffffffffffffffffffffffffff021916908373ffffffffffffffffffffffffffffffffffffffff160217905550505050610819806102396000396000f300608060405260043610610078576000357c0100000000000000000000000000000000000000000000000000000000900463ffffffff16806330af58d21461007d5780637c01b8f4146100875780637e20c268146100a9578063a06d88a0146100b3578063a3e11807146100de578063f48ba7d114610135575b600080fd5b61008561018c565b005b61008f61039b565b604051808215151515815260200191505060405180910390f35b6100b161056d565b005b3480156100bf57600080fd5b506100c861077d565b6040518082815260200191505060405180910390f35b3480156100ea57600080fd5b506100f3610788565b604051808273ffffffffffffffffffffffffffffffffffffffff1673ffffffffffffffffffffffffffffffffffffffff16815260200191505060405180910390f35b34801561014157600080fd5b5061014a6107ae565b604051808273ffffffffffffffffffffffffffffffffffffffff1673ffffffffffffffffffffffffffffffffffffffff16815260200191505060405180910390f35b6000809054906101000a900473ffffffffffffffffffffffffffffffffffffffff1673ffffffffffffffffffffffffffffffffffffffff166108fc6101e3662386f26fc100006002546107d490919063ffffffff16565b9081150290604051600060405180830381858888f1935050505015801561020e573d6000803e3d6000fd5b50600460009054906101000a900473ffffffffffffffffffffffffffffffffffffffff1673ffffffffffffffffffffffffffffffffffffffff166108fc662386f26fc100009081150290604051600060405180830381858888f1935050505015801561027e573d6000803e3d6000fd5b50600360019054906101000a900473ffffffffffffffffffffffffffffffffffffffff1673ffffffffffffffffffffffffffffffffffffffff1663347a39a16000809054906101000a900473ffffffffffffffffffffffffffffffffffffffff166040518263ffffffff167c0100000000000000000000000000000000000000000000000000000000028152600401808273ffffffffffffffffffffffffffffffffffffffff1673ffffffffffffffffffffffffffffffffffffffff168152602001915050602060405180830381600087803b15801561035d57600080fd5b505af1158015610371573d6000803e3d6000fd5b505050506040513d602081101561038757600080fd5b810190808051906020019092919050505050565b6000662386f26fc1000034101515156103b357600080fd5b34600281905550336000806101000a81548173ffffffffffffffffffffffffffffffffffffffff021916908373ffffffffffffffffffffffffffffffffffffffff160217905550600360019054906101000a900473ffffffffffffffffffffffffffffffffffffffff1673ffffffffffffffffffffffffffffffffffffffff166383f1b16530600160009054906101000a900473ffffffffffffffffffffffffffffffffffffffff16600360009054906101000a900460ff166040518463ffffffff167c0100000000000000000000000000000000000000000000000000000000028152600401808473ffffffffffffffffffffffffffffffffffffffff1673ffffffffffffffffffffffffffffffffffffffff1681526020018373ffffffffffffffffffffffffffffffffffffffff1673ffffffffffffffffffffffffffffffffffffffff1681526020018260ff1660ff1681526020019350505050602060405180830381600087803b15801561052a57600080fd5b505af115801561053e573d6000803e3d6000fd5b505050506040513d602081101561055457600080fd5b8101908080519060200190929190505050506001905090565b600160009054906101000a900473ffffffffffffffffffffffffffffffffffffffff1673ffffffffffffffffffffffffffffffffffffffff166108fc6105c5662386f26fc100006002546107d490919063ffffffff16565b9081150290604051600060405180830381858888f193505050501580156105f0573d6000803e3d6000fd5b50600460009054906101000a900473ffffffffffffffffffffffffffffffffffffffff1673ffffffffffffffffffffffffffffffffffffffff166108fc662386f26fc100009081150290604051600060405180830381858888f19350505050158015610660573d6000803e3d6000fd5b50600360019054906101000a900473ffffffffffffffffffffffffffffffffffffffff1673ffffffffffffffffffffffffffffffffffffffff1663a03729f56000809054906101000a900473ffffffffffffffffffffffffffffffffffffffff166040518263ffffffff167c0100000000000000000000000000000000000000000000000000000000028152600401808273ffffffffffffffffffffffffffffffffffffffff1673ffffffffffffffffffffffffffffffffffffffff168152602001915050602060405180830381600087803b15801561073f57600080fd5b505af1158015610753573d6000803e3d6000fd5b505050506040513d602081101561076957600080fd5b810190808051906020019092919050505050565b662386f26fc1000081565b600360019054906101000a900473ffffffffffffffffffffffffffffffffffffffff1681565b600460009054906101000a900473ffffffffffffffffffffffffffffffffffffffff1681565b60008282111515156107e257fe5b8183039050929150505600a165627a7a72305820949613e4f3d546b58d056f214e9ca83c0659e6292e9a765f903809187550234c0029",
  "source": "pragma solidity ^0.4.23;\n\n/*\nThis contract is the \"instantiation\" of MessagingInterface. This is the\ncontract that is initialized for each ABTS request so we can mitigate our\nscalability concerns.\n*/\nimport \"./MessagingInterface.sol\";\n\nimport \"openzeppelin-solidity/contracts/math/SafeMath.sol\";\n\ncontract AbtsRequestWithoutReef {\n  using SafeMath for uint256;\n\n  address private txInitiator;\n  address private txReceiver;\n  uint256 private amount;\n  uint8 private trustScoreThreshold;\n\n  MessagingInterface public messagingInterface;\n  uint public constant coralFeeInEth = 0.01 * 1 ether;\n  address public coralWallet;\n\n  constructor(\n    address MessagingInterfaceAddress, address _txReceiver, uint8 _trustScoreThreshold\n  ) public payable {\n    require(_trustScoreThreshold >= 0);\n    require(_txReceiver != address(0));\n\n    txReceiver = _txReceiver;\n    trustScoreThreshold = _trustScoreThreshold;\n\n    messagingInterface = MessagingInterface(MessagingInterfaceAddress);\n\n    coralWallet = messagingInterface.coralWallet();\n  }\n\n  function initiateScoreRetrieval() public payable returns(bool) {\n    require(msg.value >= coralFeeInEth);\n    amount = msg.value;\n    txInitiator = msg.sender;\n\n    messagingInterface.notifyOfNewAbtsRequest(address(this), txReceiver, trustScoreThreshold);\n    return true;\n  }\n\n  /*\n  The function that's called when the recipient's ABTS is below the transaction\n  initiator's ABTS threshold. Initial funds are transferred back to the initiator\n  sans the coral fee, which is transferred to coral's wallet\n  */\n  function revertTransaction() payable public {\n    /* require(msg.sender == coralWallet); */\n    txInitiator.transfer(amount.sub(coralFeeInEth));\n    coralWallet.transfer(coralFeeInEth);\n    messagingInterface.notifyOfRevertTransaction(txInitiator);\n  }\n\n  /*\n  The function that's called when the recipient's ABTS is above the transaction\n  initiator's ABTS threshold. Initial funds are transferred on to the intended\n  recipient, sans the coral fee, which is transferred to coral's wallet\n  */\n  function initiateRelay() payable public {\n    /* require(msg.sender == coralWallet); */\n    txReceiver.transfer(amount.sub(coralFeeInEth));\n    coralWallet.transfer(coralFeeInEth);\n    messagingInterface.notifyOfInitiateRelay(txInitiator);\n  }\n}\n",
  "sourcePath": "/Users/hdahme/Projects/indisputable/reef-token/contracts/AbtsRequestWithoutReef.sol",
  "compiler": {
    "name": "solc",
    "version": "0.4.24+commit.e67f0147.Emscripten.clang"
  },
  "schemaVersion": "2.0.0",
  "updatedAt": "2018-07-18T23:48:51.716Z"
}